{
  "_format": "hh-sol-artifact-1",
  "contractName": "myTest",
  "sourceName": "contracts/myTest.sol",
  "abi": [
    {
      "inputs": [
        {
          "internalType": "uint256",
          "name": "_unlockedTime",
          "type": "uint256"
        }
      ],
      "stateMutability": "payable",
      "type": "constructor"
    },
    {
      "anonymous": false,
      "inputs": [
        {
          "indexed": false,
          "internalType": "uint256",
          "name": "amount",
          "type": "uint256"
        },
        {
          "indexed": false,
          "internalType": "uint256",
          "name": "when",
          "type": "uint256"
        }
      ],
      "name": "withrawal",
      "type": "event"
    },
    {
      "inputs": [],
      "name": "owner",
      "outputs": [
        {
          "internalType": "address payable",
          "name": "",
          "type": "address"
        }
      ],
      "stateMutability": "view",
      "type": "function"
    },
    {
      "inputs": [],
      "name": "unlockedTime",
      "outputs": [
        {
          "internalType": "uint256",
          "name": "",
          "type": "uint256"
        }
      ],
      "stateMutability": "view",
      "type": "function"
    },
    {
      "inputs": [],
      "name": "withdraw",
      "outputs": [],
      "stateMutability": "nonpayable",
      "type": "function"
    }
  ],
  "bytecode": "0x6080604052604051610624380380610624833981810160405281019061002591906100f0565b804210610067576040517f08c379a000000000000000000000000000000000000000000000000000000000815260040161005e906101a0565b60405180910390fd5b8060008190555033600160006101000a81548173ffffffffffffffffffffffffffffffffffffffff021916908373ffffffffffffffffffffffffffffffffffffffff160217905550506101c0565b600080fd5b6000819050919050565b6100cd816100ba565b81146100d857600080fd5b50565b6000815190506100ea816100c4565b92915050565b600060208284031215610106576101056100b5565b5b6000610114848285016100db565b91505092915050565b600082825260208201905092915050565b7f556e6c6f636b65642074696d652073686f756c6420626520696e20667574757260008201527f652e000000000000000000000000000000000000000000000000000000000000602082015250565b600061018a60228361011d565b91506101958261012e565b604082019050919050565b600060208201905081810360008301526101b98161017d565b9050919050565b610455806101cf6000396000f3fe608060405234801561001057600080fd5b50600436106100415760003560e01c80630e5c6f42146100465780633ccfd60b146100645780638da5cb5b1461006e575b600080fd5b61004e61008c565b60405161005b919061024a565b60405180910390f35b61006c610092565b005b61007661020b565b60405161008391906102a6565b60405180910390f35b60005481565b6000544210156100d7576040517f08c379a00000000000000000000000000000000000000000000000000000000081526004016100ce90610344565b60405180910390fd5b600160009054906101000a900473ffffffffffffffffffffffffffffffffffffffff1673ffffffffffffffffffffffffffffffffffffffff163373ffffffffffffffffffffffffffffffffffffffff1614610167576040517f08c379a000000000000000000000000000000000000000000000000000000000815260040161015e906103d6565b60405180910390fd5b7ffff78081350c152cfba35f6d5a9038f511d0222c2fad81953c7ca549a21660ec47426040516101989291906103f6565b60405180910390a1600160009054906101000a900473ffffffffffffffffffffffffffffffffffffffff1673ffffffffffffffffffffffffffffffffffffffff166108fc479081150290604051600060405180830381858888f19350505050158015610208573d6000803e3d6000fd5b50565b600160009054906101000a900473ffffffffffffffffffffffffffffffffffffffff1681565b6000819050919050565b61024481610231565b82525050565b600060208201905061025f600083018461023b565b92915050565b600073ffffffffffffffffffffffffffffffffffffffff82169050919050565b600061029082610265565b9050919050565b6102a081610285565b82525050565b60006020820190506102bb6000830184610297565b92915050565b600082825260208201905092915050565b7f576169742074696c6c207468652074696d6520706572696f6420697320636f6d60008201527f706c657465642e00000000000000000000000000000000000000000000000000602082015250565b600061032e6027836102c1565b9150610339826102d2565b604082019050919050565b6000602082019050818103600083015261035d81610321565b9050919050565b7f4f6e6c7920746865204f776e657220697320616c6c6f77656420746f2074726160008201527f6e736665722066756e64732e0000000000000000000000000000000000000000602082015250565b60006103c0602c836102c1565b91506103cb82610364565b604082019050919050565b600060208201905081810360008301526103ef816103b3565b9050919050565b600060408201905061040b600083018561023b565b610418602083018461023b565b939250505056fea26469706673582212206c7292f90b4e2fc27bf3eff84fdbc45e217be9c72f822e23b44cde63b40b420f64736f6c63430008110033",
  "linkReferences": {},
  "deployedLinkReferences": {}
}